{
  "contractName": "Casper",
  "abi": [
    {
      "constant": true,
      "inputs": [],
      "name": "next_dynasty_wei_delta",
      "outputs": [
        {
          "name": "",
          "type": "uint256"
        }
      ],
      "payable": false,
      "stateMutability": "view",
      "type": "function"
    },
    {
      "constant": true,
      "inputs": [],
      "name": "sighasher",
      "outputs": [
        {
          "name": "",
          "type": "address"
        }
      ],
      "payable": false,
      "stateMutability": "view",
      "type": "function"
    },
    {
      "constant": true,
      "inputs": [
        {
          "name": "",
          "type": "uint128"
        }
      ],
      "name": "dynasty_start_epoch",
      "outputs": [
        {
          "name": "",
          "type": "uint128"
        }
      ],
      "payable": false,
      "stateMutability": "view",
      "type": "function"
    },
    {
      "constant": true,
      "inputs": [
        {
          "name": "",
          "type": "uint256"
        }
      ],
      "name": "validators",
      "outputs": [
        {
          "name": "deposit",
          "type": "uint128"
        },
        {
          "name": "start_dynasty",
          "type": "uint128"
        },
        {
          "name": "end_dynasty",
          "type": "uint128"
        },
        {
          "name": "addr",
          "type": "address"
        },
        {
          "name": "withdrawal_addr",
          "type": "address"
        },
        {
          "name": "exists",
          "type": "bool"
        }
      ],
      "payable": false,
      "stateMutability": "view",
      "type": "function"
    },
    {
      "constant": true,
      "inputs": [],
      "name": "epoch_length",
      "outputs": [
        {
          "name": "",
          "type": "uint128"
        }
      ],
      "payable": false,
      "stateMutability": "view",
      "type": "function"
    },
    {
      "constant": true,
      "inputs": [],
      "name": "second_next_dynasty_wei_delta",
      "outputs": [
        {
          "name": "",
          "type": "uint256"
        }
      ],
      "payable": false,
      "stateMutability": "view",
      "type": "function"
    },
    {
      "constant": true,
      "inputs": [],
      "name": "dynasty",
      "outputs": [
        {
          "name": "",
          "type": "uint128"
        }
      ],
      "payable": false,
      "stateMutability": "view",
      "type": "function"
    },
    {
      "constant": true,
      "inputs": [],
      "name": "purity_checker",
      "outputs": [
        {
          "name": "",
          "type": "address"
        }
      ],
      "payable": false,
      "stateMutability": "view",
      "type": "function"
    },
    {
      "constant": true,
      "inputs": [],
      "name": "owner",
      "outputs": [
        {
          "name": "",
          "type": "address"
        }
      ],
      "payable": false,
      "stateMutability": "view",
      "type": "function"
    },
    {
      "constant": true,
      "inputs": [],
      "name": "total_prevdyn_deposits",
      "outputs": [
        {
          "name": "",
          "type": "uint256"
        }
      ],
      "payable": false,
      "stateMutability": "view",
      "type": "function"
    },
    {
      "constant": true,
      "inputs": [],
      "name": "current_epoch",
      "outputs": [
        {
          "name": "",
          "type": "uint128"
        }
      ],
      "payable": false,
      "stateMutability": "view",
      "type": "function"
    },
    {
      "constant": true,
      "inputs": [],
      "name": "total_curdyn_deposits",
      "outputs": [
        {
          "name": "",
          "type": "uint256"
        }
      ],
      "payable": false,
      "stateMutability": "view",
      "type": "function"
    },
    {
      "constant": true,
      "inputs": [],
      "name": "min_deposit_size",
      "outputs": [
        {
          "name": "",
          "type": "uint256"
        }
      ],
      "payable": false,
      "stateMutability": "view",
      "type": "function"
    },
    {
      "constant": true,
      "inputs": [],
      "name": "simulate_penalties",
      "outputs": [
        {
          "name": "",
          "type": "bool"
        }
      ],
      "payable": false,
      "stateMutability": "view",
      "type": "function"
    },
    {
      "constant": true,
      "inputs": [
        {
          "name": "",
          "type": "address"
        }
      ],
      "name": "validator_indexes",
      "outputs": [
        {
          "name": "",
          "type": "uint128"
        }
      ],
      "payable": false,
      "stateMutability": "view",
      "type": "function"
    },
    {
      "constant": true,
      "inputs": [],
      "name": "withdrawal_delay",
      "outputs": [
        {
          "name": "",
          "type": "uint128"
        }
      ],
      "payable": false,
      "stateMutability": "view",
      "type": "function"
    },
    {
      "constant": false,
      "inputs": [
        {
          "name": "newOwner",
          "type": "address"
        }
      ],
      "name": "transferOwnership",
      "outputs": [],
      "payable": false,
      "stateMutability": "nonpayable",
      "type": "function"
    },
    {
      "constant": true,
      "inputs": [],
      "name": "base_interest_factor",
      "outputs": [
        {
          "name": "",
          "type": "uint256"
        }
      ],
      "payable": false,
      "stateMutability": "view",
      "type": "function"
    },
    {
      "inputs": [],
      "payable": false,
      "stateMutability": "nonpayable",
      "type": "constructor"
    },
    {
      "payable": true,
      "stateMutability": "payable",
      "type": "fallback"
    },
    {
      "anonymous": false,
      "inputs": [
        {
          "indexed": false,
          "name": "from",
          "type": "address"
        },
        {
          "indexed": false,
          "name": "to",
          "type": "address"
        },
        {
          "indexed": false,
          "name": "typeOf",
          "type": "bytes32"
        },
        {
          "indexed": false,
          "name": "value",
          "type": "uint256"
        },
        {
          "indexed": false,
          "name": "created",
          "type": "uint256"
        }
      ],
      "name": "Transfered",
      "type": "event"
    },
    {
      "anonymous": false,
      "inputs": [
        {
          "indexed": false,
          "name": "addressSender",
          "type": "address"
        },
        {
          "indexed": false,
          "name": "created",
          "type": "uint256"
        }
      ],
      "name": "Logout",
      "type": "event"
    },
    {
      "anonymous": false,
      "inputs": [
        {
          "indexed": false,
          "name": "addressSender",
          "type": "address"
        },
        {
          "indexed": false,
          "name": "amount",
          "type": "uint256"
        },
        {
          "indexed": false,
          "name": "created",
          "type": "uint256"
        }
      ],
      "name": "Withdrawal",
      "type": "event"
    },
    {
      "anonymous": false,
      "inputs": [
        {
          "indexed": true,
          "name": "previousOwner",
          "type": "address"
        },
        {
          "indexed": true,
          "name": "newOwner",
          "type": "address"
        }
      ],
      "name": "OwnershipTransferred",
      "type": "event"
    },
    {
      "constant": true,
      "inputs": [
        {
          "name": "withdrawal_addr",
          "type": "address"
        }
      ],
      "name": "get_validator_indexes",
      "outputs": [
        {
          "name": "",
          "type": "uint128"
        }
      ],
      "payable": false,
      "stateMutability": "view",
      "type": "function"
    },
    {
      "constant": true,
      "inputs": [],
      "name": "get_current_epoch",
      "outputs": [
        {
          "name": "",
          "type": "uint128"
        }
      ],
      "payable": false,
      "stateMutability": "view",
      "type": "function"
    },
    {
      "constant": true,
      "inputs": [],
      "name": "get_dynasty",
      "outputs": [
        {
          "name": "",
          "type": "uint128"
        }
      ],
      "payable": false,
      "stateMutability": "view",
      "type": "function"
    },
    {
      "constant": true,
      "inputs": [
        {
          "name": "validator_index",
          "type": "uint256"
        }
      ],
      "name": "get_deposit_size",
      "outputs": [
        {
          "name": "",
          "type": "uint128"
        }
      ],
      "payable": false,
      "stateMutability": "view",
      "type": "function"
    },
    {
      "constant": true,
      "inputs": [
        {
          "name": "validator_index",
          "type": "uint128"
        }
      ],
      "name": "get_validators__dynasty_start",
      "outputs": [
        {
          "name": "",
          "type": "uint128"
        }
      ],
      "payable": false,
      "stateMutability": "view",
      "type": "function"
    },
    {
      "constant": true,
      "inputs": [
        {
          "name": "validator_index",
          "type": "uint128"
        }
      ],
      "name": "get_validators__dynasty_end",
      "outputs": [
        {
          "name": "",
          "type": "uint128"
        }
      ],
      "payable": false,
      "stateMutability": "view",
      "type": "function"
    },
    {
      "constant": true,
      "inputs": [
        {
          "name": "validator_index",
          "type": "uint128"
        }
      ],
      "name": "get_validators__addr",
      "outputs": [
        {
          "name": "",
          "type": "address"
        }
      ],
      "payable": false,
      "stateMutability": "view",
      "type": "function"
    },
    {
      "constant": true,
      "inputs": [
        {
          "name": "validator_index",
          "type": "uint128"
        }
      ],
      "name": "get_validators__withdrawal_address",
      "outputs": [
        {
          "name": "",
          "type": "address"
        }
      ],
      "payable": false,
      "stateMutability": "view",
      "type": "function"
    },
    {
      "constant": true,
      "inputs": [],
      "name": "get_withdrawal_delay",
      "outputs": [
        {
          "name": "",
          "type": "uint256"
        }
      ],
      "payable": false,
      "stateMutability": "view",
      "type": "function"
    },
    {
      "constant": true,
      "inputs": [
        {
          "name": "_dynasty",
          "type": "uint128"
        }
      ],
      "name": "get_dynasty_start_epoch",
      "outputs": [
        {
          "name": "",
          "type": "uint128"
        }
      ],
      "payable": false,
      "stateMutability": "view",
      "type": "function"
    },
    {
      "constant": false,
      "inputs": [
        {
          "name": "validator_address",
          "type": "address"
        },
        {
          "name": "withdrawal_address",
          "type": "address"
        }
      ],
      "name": "deposit",
      "outputs": [],
      "payable": true,
      "stateMutability": "payable",
      "type": "function"
    },
    {
      "constant": false,
      "inputs": [
        {
          "name": "logout_msg",
          "type": "bytes"
        }
      ],
      "name": "logout",
      "outputs": [],
      "payable": false,
      "stateMutability": "nonpayable",
      "type": "function"
    },
    {
      "constant": false,
      "inputs": [
        {
          "name": "validator_index",
          "type": "uint256"
        }
      ],
      "name": "withdraw",
      "outputs": [
        {
          "name": "",
          "type": "bool"
        }
      ],
      "payable": false,
      "stateMutability": "nonpayable",
      "type": "function"
    },
    {
      "constant": false,
      "inputs": [],
      "name": "set_increment_epoch",
      "outputs": [],
      "payable": false,
      "stateMutability": "nonpayable",
      "type": "function"
    },
    {
      "constant": false,
      "inputs": [],
      "name": "set_increment_dynasty",
      "outputs": [],
      "payable": false,
      "stateMutability": "nonpayable",
      "type": "function"
    },
    {
      "constant": false,
      "inputs": [
        {
          "name": "_option",
          "type": "bool"
        }
      ],
      "name": "set_simulate_penalties",
      "outputs": [],
      "payable": false,
      "stateMutability": "nonpayable",
      "type": "function"
    }
  ],
  "bytecode": "0x606060405260018060006101000a8154816fffffffffffffffffffffffffffffffff02191690836fffffffffffffffffffffffffffffffff1602179055506000600760006101000a8154816fffffffffffffffffffffffffffffffff02191690836fffffffffffffffffffffffffffffffff1602179055506005600760106101000a8154816fffffffffffffffffffffffffffffffff02191690836fffffffffffffffffffffffffffffffff160217905550671bc16d674ec800006008556000600a60006101000a81548160ff0219169083151502179055506001600e60006101000a8154816fffffffffffffffffffffffffffffffff02191690836fffffffffffffffffffffffffffffffff160217905550341561011d57600080fd5b336000806101000a81548173ffffffffffffffffffffffffffffffffffffffff021916908373ffffffffffffffffffffffffffffffffffffffff1602179055506120628061016c6000396000f3006060604052600436106101ac576000357c0100000000000000000000000000000000000000000000000000000000900463ffffffff16806301827825146101ae578063154d0fc9146101d7578063208b55ae1461022c578063220561da146102995780632e1a7d4d146103065780633263b73e1461034157806335aa2e44146103b657806342310c32146104d85780634231bfe11461053557806347a284c7146105825780635bcb18c7146105ab5780637060054d1461061857806374311a7f14610665578063837a9bc7146106ba578063862f8547146107075780638da5cb5b1461071c57806393221484146107715780639372b4e41461079a5780639caa34e2146107e7578063a0b286d614610810578063c36b665d1461085d578063c3826907146108ca578063c8c9f9d8146108f3578063ccc2a83a14610908578063cdefe1701461092d578063d42633e414610988578063d8775595146109b1578063daf23cc3146109de578063dc2059b314610a53578063e46cec6014610ac4578063eaa26f0f14610b35578063f2fde38b14610b82578063f9609f0814610bbb578063feaf82bd14610c08575b005b34156101b957600080fd5b6101c1610c31565b6040518082815260200191505060405180910390f35b34156101e257600080fd5b6101ea610c37565b604051808273ffffffffffffffffffffffffffffffffffffffff1673ffffffffffffffffffffffffffffffffffffffff16815260200191505060405180910390f35b341561023757600080fd5b61025f60048080356fffffffffffffffffffffffffffffffff16906020019091905050610c5d565b60405180826fffffffffffffffffffffffffffffffff166fffffffffffffffffffffffffffffffff16815260200191505060405180910390f35b34156102a457600080fd5b6102cc60048080356fffffffffffffffffffffffffffffffff16906020019091905050610c8c565b60405180826fffffffffffffffffffffffffffffffff166fffffffffffffffffffffffffffffffff16815260200191505060405180910390f35b341561031157600080fd5b6103276004808035906020019091905050610cda565b604051808215151515815260200191505060405180910390f35b341561034c57600080fd5b61037460048080356fffffffffffffffffffffffffffffffff16906020019091905050610f1c565b604051808273ffffffffffffffffffffffffffffffffffffffff1673ffffffffffffffffffffffffffffffffffffffff16815260200191505060405180910390f35b34156103c157600080fd5b6103d76004808035906020019091905050610f6e565b60405180876fffffffffffffffffffffffffffffffff166fffffffffffffffffffffffffffffffff168152602001866fffffffffffffffffffffffffffffffff166fffffffffffffffffffffffffffffffff168152602001856fffffffffffffffffffffffffffffffff166fffffffffffffffffffffffffffffffff1681526020018473ffffffffffffffffffffffffffffffffffffffff1673ffffffffffffffffffffffffffffffffffffffff1681526020018373ffffffffffffffffffffffffffffffffffffffff1673ffffffffffffffffffffffffffffffffffffffff16815260200182151515158152602001965050505050505060405180910390f35b34156104e357600080fd5b610533600480803590602001908201803590602001908080601f0160208091040260200160405190810160405280939291908181526020018383808284378201915050505050509190505061104b565b005b341561054057600080fd5b610548611270565b60405180826fffffffffffffffffffffffffffffffff166fffffffffffffffffffffffffffffffff16815260200191505060405180910390f35b341561058d57600080fd5b610595611292565b6040518082815260200191505060405180910390f35b34156105b657600080fd5b6105de60048080356fffffffffffffffffffffffffffffffff16906020019091905050611298565b60405180826fffffffffffffffffffffffffffffffff166fffffffffffffffffffffffffffffffff16815260200191505060405180910390f35b341561062357600080fd5b61062b6112e6565b60405180826fffffffffffffffffffffffffffffffff166fffffffffffffffffffffffffffffffff16815260200191505060405180910390f35b341561067057600080fd5b610678611308565b604051808273ffffffffffffffffffffffffffffffffffffffff1673ffffffffffffffffffffffffffffffffffffffff16815260200191505060405180910390f35b34156106c557600080fd5b6106cd61132e565b60405180826fffffffffffffffffffffffffffffffff166fffffffffffffffffffffffffffffffff16815260200191505060405180910390f35b341561071257600080fd5b61071a611354565b005b341561072757600080fd5b61072f6114e1565b604051808273ffffffffffffffffffffffffffffffffffffffff1673ffffffffffffffffffffffffffffffffffffffff16815260200191505060405180910390f35b341561077c57600080fd5b610784611506565b6040518082815260200191505060405180910390f35b34156107a557600080fd5b6107ad61150c565b60405180826fffffffffffffffffffffffffffffffff166fffffffffffffffffffffffffffffffff16815260200191505060405180910390f35b34156107f257600080fd5b6107fa61152e565b6040518082815260200191505060405180910390f35b341561081b57600080fd5b610823611534565b60405180826fffffffffffffffffffffffffffffffff166fffffffffffffffffffffffffffffffff16815260200191505060405180910390f35b341561086857600080fd5b61089060048080356fffffffffffffffffffffffffffffffff1690602001909190505061155a565b60405180826fffffffffffffffffffffffffffffffff166fffffffffffffffffffffffffffffffff16815260200191505060405180910390f35b34156108d557600080fd5b6108dd6115b7565b6040518082815260200191505060405180910390f35b34156108fe57600080fd5b6109066115ef565b005b341561091357600080fd5b61092b600480803515159060200190919050506116a7565b005b341561093857600080fd5b61094e600480803590602001909190505061171f565b60405180826fffffffffffffffffffffffffffffffff166fffffffffffffffffffffffffffffffff16815260200191505060405180910390f35b341561099357600080fd5b61099b61175b565b6040518082815260200191505060405180910390f35b34156109bc57600080fd5b6109c4611761565b604051808215151515815260200191505060405180910390f35b34156109e957600080fd5b610a1160048080356fffffffffffffffffffffffffffffffff16906020019091905050611774565b604051808273ffffffffffffffffffffffffffffffffffffffff1673ffffffffffffffffffffffffffffffffffffffff16815260200191505060405180910390f35b3415610a5e57600080fd5b610a8a600480803573ffffffffffffffffffffffffffffffffffffffff169060200190919050506117c6565b60405180826fffffffffffffffffffffffffffffffff166fffffffffffffffffffffffffffffffff16815260200191505060405180910390f35b3415610acf57600080fd5b610afb600480803573ffffffffffffffffffffffffffffffffffffffff169060200190919050506117f5565b60405180826fffffffffffffffffffffffffffffffff166fffffffffffffffffffffffffffffffff16815260200191505060405180910390f35b3415610b4057600080fd5b610b4861185a565b60405180826fffffffffffffffffffffffffffffffff166fffffffffffffffffffffffffffffffff16815260200191505060405180910390f35b3415610b8d57600080fd5b610bb9600480803573ffffffffffffffffffffffffffffffffffffffff1690602001909190505061187c565b005b610c06600480803573ffffffffffffffffffffffffffffffffffffffff1690602001909190803573ffffffffffffffffffffffffffffffffffffffff169060200190919050506119d1565b005b3415610c1357600080fd5b610c1b611e97565b6040518082815260200191505060405180910390f35b60025481565b600a60019054906101000a900473ffffffffffffffffffffffffffffffffffffffff1681565b60096020528060005260406000206000915054906101000a90046fffffffffffffffffffffffffffffffff1681565b6000600c6000836fffffffffffffffffffffffffffffffff16815260200190815260200160002060010160009054906101000a90046fffffffffffffffffffffffffffffffff169050919050565b60008060006001600c600086815260200190815260200160002060010160009054906101000a90046fffffffffffffffffffffffffffffffff16016fffffffffffffffffffffffffffffffff16600160109054906101000a90046fffffffffffffffffffffffffffffffff166fffffffffffffffffffffffffffffffff1610151515610d6257fe5b600c600085815260200190815260200160002060000160009054906101000a90046fffffffffffffffffffffffffffffffff166fffffffffffffffffffffffffffffffff16915060009050600a60009054906101000a900460ff1615610ddb57606460048302811515610dd157fe5b0482039050610df0565b606460028302811515610dea57fe5b04820190505b600c600085815260200190815260200160002060030160009054906101000a900473ffffffffffffffffffffffffffffffffffffffff1673ffffffffffffffffffffffffffffffffffffffff166108fc829081150290604051600060405180830381858888f193505050501515610e6357fe5b610e6c84611e9d565b7fdf273cb619d95419a9cd0ec88123a0538c85064229baa6363788f743fff90deb600c600086815260200190815260200160002060030160009054906101000a900473ffffffffffffffffffffffffffffffffffffffff168242604051808473ffffffffffffffffffffffffffffffffffffffff1673ffffffffffffffffffffffffffffffffffffffff168152602001838152602001828152602001935050505060405180910390a15050919050565b6000600c6000836fffffffffffffffffffffffffffffffff16815260200190815260200160002060030160009054906101000a900473ffffffffffffffffffffffffffffffffffffffff169050919050565b600c6020528060005260406000206000915090508060000160009054906101000a90046fffffffffffffffffffffffffffffffff16908060000160109054906101000a90046fffffffffffffffffffffffffffffffff16908060010160009054906101000a90046fffffffffffffffffffffffffffffffff16908060020160009054906101000a900473ffffffffffffffffffffffffffffffffffffffff16908060030160009054906101000a900473ffffffffffffffffffffffffffffffffffffffff16908060030160149054906101000a900460ff16905086565b6000600d60003373ffffffffffffffffffffffffffffffffffffffff1673ffffffffffffffffffffffffffffffffffffffff16815260200190815260200160002060009054906101000a90046fffffffffffffffffffffffffffffffff166fffffffffffffffffffffffffffffffff1690506002600160109054906101000a90046fffffffffffffffffffffffffffffffff16016fffffffffffffffffffffffffffffffff16600c600083815260200190815260200160002060010160009054906101000a90046fffffffffffffffffffffffffffffffff166fffffffffffffffffffffffffffffffff1611151561113f57fe5b6002600160109054906101000a90046fffffffffffffffffffffffffffffffff1601600c600083815260200190815260200160002060010160006101000a8154816fffffffffffffffffffffffffffffffff02191690836fffffffffffffffffffffffffffffffff160217905550600c600082815260200190815260200160002060000160009054906101000a90046fffffffffffffffffffffffffffffffff166fffffffffffffffffffffffffffffffff166003600082825403925050819055507fd63b9a3ee2a5021cdb3b4810fe35dd395b99a750cc3cd653e1fb319d8c91332a3342604051808373ffffffffffffffffffffffffffffffffffffffff1673ffffffffffffffffffffffffffffffffffffffff1681526020018281526020019250505060405180910390a15050565b600760109054906101000a90046fffffffffffffffffffffffffffffffff1681565b60035481565b6000600c6000836fffffffffffffffffffffffffffffffff16815260200190815260200160002060000160109054906101000a90046fffffffffffffffffffffffffffffffff169050919050565b600160109054906101000a90046fffffffffffffffffffffffffffffffff1681565b600b60009054906101000a900473ffffffffffffffffffffffffffffffffffffffff1681565b6000600760009054906101000a90046fffffffffffffffffffffffffffffffff16905090565b6000809054906101000a900473ffffffffffffffffffffffffffffffffffffffff1673ffffffffffffffffffffffffffffffffffffffff163373ffffffffffffffffffffffffffffffffffffffff161415156113af57600080fd5b60018060108282829054906101000a90046fffffffffffffffffffffffffffffffff160192506101000a8154816fffffffffffffffffffffffffffffffff02191690836fffffffffffffffffffffffffffffffff160217905550600760009054906101000a90046fffffffffffffffffffffffffffffffff1660096000600160109054906101000a90046fffffffffffffffffffffffffffffffff166fffffffffffffffffffffffffffffffff166fffffffffffffffffffffffffffffffff16815260200190815260200160002060006101000a8154816fffffffffffffffffffffffffffffffff02191690836fffffffffffffffffffffffffffffffff1602179055506004546005819055506002546004600082825401925050819055506003546002819055506000600381905550565b6000809054906101000a900473ffffffffffffffffffffffffffffffffffffffff1681565b60055481565b600760009054906101000a90046fffffffffffffffffffffffffffffffff1681565b60045481565b6000600160109054906101000a90046fffffffffffffffffffffffffffffffff16905090565b600060096000836fffffffffffffffffffffffffffffffff166fffffffffffffffffffffffffffffffff16815260200190815260200160002060009054906101000a90046fffffffffffffffffffffffffffffffff169050919050565b6000600160009054906101000a90046fffffffffffffffffffffffffffffffff166fffffffffffffffffffffffffffffffff16905090565b6000809054906101000a900473ffffffffffffffffffffffffffffffffffffffff1673ffffffffffffffffffffffffffffffffffffffff163373ffffffffffffffffffffffffffffffffffffffff1614151561164a57600080fd5b6001600760008282829054906101000a90046fffffffffffffffffffffffffffffffff160192506101000a8154816fffffffffffffffffffffffffffffffff02191690836fffffffffffffffffffffffffffffffff160217905550565b6000809054906101000a900473ffffffffffffffffffffffffffffffffffffffff1673ffffffffffffffffffffffffffffffffffffffff163373ffffffffffffffffffffffffffffffffffffffff1614151561170257600080fd5b80600a60006101000a81548160ff02191690831515021790555050565b6000600c600083815260200190815260200160002060000160009054906101000a90046fffffffffffffffffffffffffffffffff169050919050565b60085481565b600a60009054906101000a900460ff1681565b6000600c6000836fffffffffffffffffffffffffffffffff16815260200190815260200160002060020160009054906101000a900473ffffffffffffffffffffffffffffffffffffffff169050919050565b600d6020528060005260406000206000915054906101000a90046fffffffffffffffffffffffffffffffff1681565b6000600d60008373ffffffffffffffffffffffffffffffffffffffff1673ffffffffffffffffffffffffffffffffffffffff16815260200190815260200160002060009054906101000a90046fffffffffffffffffffffffffffffffff169050919050565b600160009054906101000a90046fffffffffffffffffffffffffffffffff1681565b6000809054906101000a900473ffffffffffffffffffffffffffffffffffffffff1673ffffffffffffffffffffffffffffffffffffffff163373ffffffffffffffffffffffffffffffffffffffff161415156118d757600080fd5b600073ffffffffffffffffffffffffffffffffffffffff168173ffffffffffffffffffffffffffffffffffffffff161415151561191357600080fd5b8073ffffffffffffffffffffffffffffffffffffffff166000809054906101000a900473ffffffffffffffffffffffffffffffffffffffff1673ffffffffffffffffffffffffffffffffffffffff167f8be0079c531659141344cd1fd0a4f28419497f9722a3daafe3b4186f6b6457e060405160405180910390a3806000806101000a81548173ffffffffffffffffffffffffffffffffffffffff021916908373ffffffffffffffffffffffffffffffffffffffff16021790555050565b600c6000600e60009054906101000a90046fffffffffffffffffffffffffffffffff166fffffffffffffffffffffffffffffffff16815260200190815260200160002060030160149054906101000a900460ff16151515611a2e57fe5b6008543410151515611a3c57fe5b60c060405190810160405280346fffffffffffffffffffffffffffffffff1681526020016002600160109054906101000a90046fffffffffffffffffffffffffffffffff16016fffffffffffffffffffffffffffffffff168152602001662386f26fc100006fffffffffffffffffffffffffffffffff1681526020018373ffffffffffffffffffffffffffffffffffffffff1681526020018273ffffffffffffffffffffffffffffffffffffffff16815260200160011515815250600c6000600e60009054906101000a90046fffffffffffffffffffffffffffffffff166fffffffffffffffffffffffffffffffff16815260200190815260200160002060008201518160000160006101000a8154816fffffffffffffffffffffffffffffffff02191690836fffffffffffffffffffffffffffffffff16021790555060208201518160000160106101000a8154816fffffffffffffffffffffffffffffffff02191690836fffffffffffffffffffffffffffffffff16021790555060408201518160010160006101000a8154816fffffffffffffffffffffffffffffffff02191690836fffffffffffffffffffffffffffffffff16021790555060608201518160020160006101000a81548173ffffffffffffffffffffffffffffffffffffffff021916908373ffffffffffffffffffffffffffffffffffffffff16021790555060808201518160030160006101000a81548173ffffffffffffffffffffffffffffffffffffffff021916908373ffffffffffffffffffffffffffffffffffffffff16021790555060a08201518160030160146101000a81548160ff021916908315150217905550905050600e60009054906101000a90046fffffffffffffffffffffffffffffffff16600d60008373ffffffffffffffffffffffffffffffffffffffff1673ffffffffffffffffffffffffffffffffffffffff16815260200190815260200160002060006101000a8154816fffffffffffffffffffffffffffffffff02191690836fffffffffffffffffffffffffffffffff1602179055506001600e60008282829054906101000a90046fffffffffffffffffffffffffffffffff160192506101000a8154816fffffffffffffffffffffffffffffffff02191690836fffffffffffffffffffffffffffffffff160217905550346003600082825401925050819055507f80ebebd9e8ba317550c4a0553f9cc93ebdcfc8a96c68772012cc23506924afb3333060405180807f6465706f73697400000000000000000000000000000000000000000000000000815250600701905060405180910390203442604051808673ffffffffffffffffffffffffffffffffffffffff1673ffffffffffffffffffffffffffffffffffffffff1681526020018573ffffffffffffffffffffffffffffffffffffffff1673ffffffffffffffffffffffffffffffffffffffff16815260200184600019166000191681526020018381526020018281526020019550505050505060405180910390a15050565b60065481565b6000600c600083815260200190815260200160002060000160006101000a8154816fffffffffffffffffffffffffffffffff02191690836fffffffffffffffffffffffffffffffff1602179055506000600c600083815260200190815260200160002060000160106101000a8154816fffffffffffffffffffffffffffffffff02191690836fffffffffffffffffffffffffffffffff1602179055506000600c600083815260200190815260200160002060010160006101000a8154816fffffffffffffffffffffffffffffffff02191690836fffffffffffffffffffffffffffffffff1602179055506000600c600083815260200190815260200160002060020160006101000a81548173ffffffffffffffffffffffffffffffffffffffff021916908373ffffffffffffffffffffffffffffffffffffffff1602179055506000600c600083815260200190815260200160002060030160006101000a81548173ffffffffffffffffffffffffffffffffffffffff021916908373ffffffffffffffffffffffffffffffffffffffff160217905550505600a165627a7a723058202d09646c3fd0a3feb464941e4e5b6e277056fd66ecfa9cce6e1a95cf0d9a251a0029",
  "source": "pragma solidity ^0.4.0;\n\n\nimport \"./Ownable.sol\";\n\n\n/// @title A dummy shell Casper contract used to simulate sending to and receiving from the actual Casper contract when it's completed.\n// We're using functions that exist in Casper that RP will need to interact with. The logic of these functions is much simpler as we only need to simulate the inputs/outputs from the contract primarily with some basic checks\n/// @author David Rugendyke\ncontract Casper is Ownable {\n\n    /**** Vars ************/\n    uint128 public withdrawal_delay = 1;                                    // Blocks until the actual withdrawal can happen after requesting\n    uint128 public dynasty;                                                 // The current dynasty - increment when votes[epoch-2].is_finalized\n    uint256 public next_dynasty_wei_delta;                                  // Amount of wei added to the total deposits in the next dynasty\n    uint256 public second_next_dynasty_wei_delta;                           // Amount of wei added to the total deposits in the dynasty after that\n    uint256 public total_curdyn_deposits;                                   // Total deposits in the current dynasty\n    uint256 public total_prevdyn_deposits;                                  // Total deposits in the previous dynasty\n    uint256 public base_interest_factor;                                    // Base interest factor\n    uint128 public current_epoch = 0;                                       // Initialize the epoch counter\n    uint128 public epoch_length = 5;                                        // How many blocks in an epoch\n    uint256 public min_deposit_size = 2 ether;                              // Min deposit required\n    //mapping (int128 => uint256)  public deposit_scale_factor = 1 ether;   // Value used to calculate the per-epoch fee that validators should be charged given as a % of 1 Ether = 100%, 0.5 Ether = 50%\n    mapping (uint128 => uint128) public dynasty_start_epoch;                // Mapping of dynasty to start epoch of that dynasty\n    bool public simulate_penalties = false;                                 // Simulate penalties in Casper\n\n\n\n    /**** Contracts ********/\n\n    address public sighasher;                                               //  Sighash calculator library address\n    address public purity_checker;                                          // The purity checker\n\n\n    /**** Validators ***************/\n\n    mapping (uint256 => Validator) public validators;                       // The current validators\n    mapping (address => uint128)  public validator_indexes;                 // All validators are indexed by their withdrawal address\n    uint128 next_validator_index = 1;                                       // Number of validators\n\n\n    /*** Structs ***************/\n\n    struct Validator {\n        uint128 deposit;\n        uint128 start_dynasty;\n        uint128 end_dynasty;\n        address addr;\n        address withdrawal_addr;\n        bool exists;\n    }\n\n\n    /*** Events ***************/\n\n    event Transfered (\n        address from,\n        address to,\n        bytes32 typeOf,\n        uint256 value,\n        uint256 created\n    );\n\n    event Logout (\n        address addressSender,\n        uint256 created\n    );\n\n    event Withdrawal (\n        address addressSender,\n        uint256 amount,\n        uint256 created\n    );\n\n\n\n\n    /// @dev DummyCasper constructor\n    // Must be sent an amount of Ether to cover simulated rewards after contract creation\n    function Casper() public {}\n\n    /// @dev Added our payable fallback so we can seed this contract on deployment with some Ether to cover the rewards sent back\n    function() public payable {}\n\n\n    /// @dev Get the validator index for the withdrawal address\n    function get_validator_indexes(address withdrawal_addr) public view returns(uint128) {\n        return validator_indexes[withdrawal_addr];\n    }\n\n    /// @dev Get the current Casper epoch\n    function get_current_epoch() public view returns(uint128) {\n        return current_epoch;\n    }\n\n    /// @dev Get the current Casper dynasty\n    function get_dynasty() public view returns(uint128) {\n        return dynasty;\n    }\n\n    /// @dev Get the current Casper epoch\n    function get_deposit_size(uint256 validator_index) public view returns(uint128) {\n        // We're not simulating caspers epochs, so leave out \"* deposit_scale_factor[current_epoch]\" from the result\n        return validators[validator_index].deposit;\n    }\n\n    /// @dev Get the validator start dynasty\n    function get_validators__dynasty_start(uint128 validator_index) public view returns (uint128) {\n        return validators[validator_index].start_dynasty;\n    }\n\n    /// @dev Get the validator end dynasty\n    function get_validators__dynasty_end(uint128 validator_index) public view returns (uint128) {\n        return validators[validator_index].end_dynasty;\n    }\n\n    /// @dev Get the validator address\n    function get_validators__addr(uint128 validator_index) public view returns (address) {\n        return validators[validator_index].addr;\n    }\n\n    /// @dev Get the validator withdrawal address\n    function get_validators__withdrawal_address(uint128 validator_index) public view returns (address) {\n        return validators[validator_index].withdrawal_addr;\n    }\n\n    /// @dev Get the current withdrawal delay in blocks\n    function get_withdrawal_delay() public view returns(uint256) {\n        return withdrawal_delay;\n    }\n\n    /// @dev Get the current start epoch of this dynasty\n    function get_dynasty_start_epoch(uint128 _dynasty) public view returns (uint128) {\n        return dynasty_start_epoch[_dynasty];\n    }\n\n    /// @notice Send `msg.value ether` Casper from the account of `message.caller.address()`\n    function deposit(address validator_address, address withdrawal_address) public payable {\n        // We don't need to verify the signature just for testing\n        // assert extract32(raw_call(purity_checker, concat('\\xa1\\x90>\\xab', as_bytes32(validation_addr)), gas=500000, outsize=32), 0) != as_bytes32(0)\n        // Make sure this withdrawal address isn't already being used by a validator\n        assert(!validators[next_validator_index].exists);\n        // Make sure its ok size wize\n        assert(msg.value >= min_deposit_size);\n        // Add the validator if it passes all the required conditions\n        validators[next_validator_index] = Validator ({\n            deposit: uint128(msg.value),\n            start_dynasty: dynasty + 2,\n            end_dynasty: 10000000000000000,\n            addr: validator_address,\n            withdrawal_addr: withdrawal_address,\n            exists: true\n            });\n        validator_indexes[withdrawal_address] = next_validator_index;\n        next_validator_index += 1;\n        second_next_dynasty_wei_delta += msg.value;\n        // All good? Fire the event for the new deposit\n        Transfered(msg.sender, this, keccak256(\"deposit\"), msg.value, now);\n\n    }\n\n\n    /// @dev Start the process for a withdrawal\n    function logout(bytes logout_msg) public {\n        // We're not simulating signatures, so just doing this to prevent warning of non-use\n        bytes(logout_msg);\n        // We're not using signatures to identify validators via messages in this dummy casper, just use msg.sender for now\n        uint256 validator_index = validator_indexes[msg.sender];\n        // Make sure we haven't already withdrawn\n        assert(validators[validator_index].end_dynasty > dynasty + 2);\n        // Set the end dynasty\n        validators[validator_index].end_dynasty = dynasty + 2;\n        second_next_dynasty_wei_delta -= validators[validator_index].deposit;\n        // Fire the event\n        Logout(msg.sender, now);\n    }\n\n    /// @dev Allow a validator to withdraw their deposit +interest/-penalties\n    function withdraw(uint256 validator_index) public returns(bool) {\n        // Check that we can withdraw\n        assert(dynasty >= validators[validator_index].end_dynasty + 1);\n        // Withdraw\n        uint256 withdraw_amount = validators[validator_index].deposit;\n        // Set the amount to send\n        uint256 withdrawal_amount_processed = 0;\n        // For testing purposes, we can similar penalties for the pool (which is highly unlikely unless we were purposefully trying to cheat)\n        if (simulate_penalties) {\n            // Simulate losing 4% of the deposit for nodes being offline or other external circumstances - remove the decimal by multiplying and dividing by 100\n            withdrawal_amount_processed = withdraw_amount - ((withdraw_amount * 4) / 100);\n        } else {\n            // Post alpha to simulate getting accurate returns, we'll be using a basic interest calculation A = P(1 + rt) (not needed atm)\n            // uint256 daysDiff = (now - validators[validationCode].withdrawalEpoch) / (60 * 60 * 24);\n            // withdrawal_amount_processed = withdraw_amount * (1 + (interestPerYear/100) * (daysDiff/365));\n            // Our withdrawal + the simulated earned rewards (using a set fake reward of 2% of the deposit regardless of time staking so that Rocket Pool can process receiving its initial deposit + rewards)\n            withdrawal_amount_processed = withdraw_amount + ((withdraw_amount * 2) / 100);\n        }\n        // Send the deposit + rewards back to the deposit address\n        // Note that ideally it would be great to use address.send(etherAmount) here so we can test the result, however due to security on the .send function, its gas is very limited\n        // and this fails on contract -> contract sends (thanks to ConsenSys for the breakdown - https://github.com/ConsenSys/Ethereum-Development-Best-Practices/wiki/Fallback-functions-and-the-fundamental-limitations-of-using-send()-in-Ethereum-&-Solidity )\n        // So in its place we'll just call the address of the contract and send the value (this forwards the gas needed), tho we can't test the result here as easily, but this will work for now in place of the real Casper\n        // If Casper when finished doesn't support contract -> contract deposit returns with gas, we can use a registered Rocket Node checkin to action the deposit after it's received by a minipool\n        // assert(validators[validator_index].withdrawal_addr.call.value(withdrawal_amount_processed)() == true);\n        // Update: Looks like Casper just uses Send which won't allow for any automatic remote contract execution due to limited gas. We'll use smart node checkins now to check for return deposits and action them automatically\n        assert(validators[validator_index].withdrawal_addr.send(withdrawal_amount_processed));\n        // Remove the validator now\n        delete_validator(validator_index);\n        // Log it\n        Withdrawal(validators[validator_index].withdrawal_addr, withdrawal_amount_processed, now);\n    }\n\n    /// @dev Delete the validator\n    function delete_validator(uint256 validator_index) private {\n        validators[validator_index].deposit = 0;\n        validators[validator_index].start_dynasty = 0;\n        validators[validator_index].end_dynasty = 0;\n        validators[validator_index].addr = 0;\n        validators[validator_index].withdrawal_addr = 0;\n    }\n\n    /// @dev Increment the current epoc to simulate Caspers epochs incrementing\n    function set_increment_epoch() public onlyOwner {\n        // Set the current epoch\n        current_epoch += 1;\n    }\n\n    /// @dev Increment the dynasty to simulate Caspers blocks being finalised\n    function set_increment_dynasty() public onlyOwner {\n        dynasty += 1;\n        // Update the start of the dynasty epoch\n        dynasty_start_epoch[dynasty] = current_epoch;\n        total_prevdyn_deposits = total_curdyn_deposits;\n        total_curdyn_deposits += next_dynasty_wei_delta;\n        next_dynasty_wei_delta = second_next_dynasty_wei_delta;\n        second_next_dynasty_wei_delta = 0;\n    }\n\n    /// @dev Simulate penalties by Casper happening\n    function set_simulate_penalties(bool _option) public onlyOwner {\n        simulate_penalties = _option;\n    }\n}   ",
  "sourcePath": "/home/hartger/code/divtest-master/app/contracts/Casper.sol",
  "compiler": {
    "name": "solc",
    "version": "0.4.19+commit.c4cbbb05.Emscripten.clang"
  },
  "schemaVersion": "1.0.1",
  "updatedAt": "2018-03-14T13:10:20.744Z"
}