{
  "contractName": "StakeAgent",
  "abi": [
    {
      "constant": true,
      "inputs": [],
      "name": "withdrawDelay",
      "outputs": [
        {
          "name": "",
          "type": "uint256"
        }
      ],
      "payable": false,
      "stateMutability": "view",
      "type": "function"
    },
    {
      "constant": true,
      "inputs": [],
      "name": "logoutCursor",
      "outputs": [
        {
          "name": "",
          "type": "uint256"
        }
      ],
      "payable": false,
      "stateMutability": "view",
      "type": "function"
    },
    {
      "constant": true,
      "inputs": [
        {
          "name": "",
          "type": "uint256"
        }
      ],
      "name": "deployedStakePools",
      "outputs": [
        {
          "name": "",
          "type": "address"
        }
      ],
      "payable": false,
      "stateMutability": "view",
      "type": "function"
    },
    {
      "constant": true,
      "inputs": [],
      "name": "numPools",
      "outputs": [
        {
          "name": "",
          "type": "uint256"
        }
      ],
      "payable": false,
      "stateMutability": "view",
      "type": "function"
    },
    {
      "constant": true,
      "inputs": [],
      "name": "endCursor",
      "outputs": [
        {
          "name": "",
          "type": "uint256"
        }
      ],
      "payable": false,
      "stateMutability": "view",
      "type": "function"
    },
    {
      "constant": true,
      "inputs": [],
      "name": "logoutDynasty",
      "outputs": [
        {
          "name": "",
          "type": "uint256"
        }
      ],
      "payable": false,
      "stateMutability": "view",
      "type": "function"
    },
    {
      "constant": true,
      "inputs": [],
      "name": "owner",
      "outputs": [
        {
          "name": "",
          "type": "address"
        }
      ],
      "payable": false,
      "stateMutability": "view",
      "type": "function"
    },
    {
      "constant": true,
      "inputs": [],
      "name": "withdrawCursor",
      "outputs": [
        {
          "name": "",
          "type": "uint256"
        }
      ],
      "payable": false,
      "stateMutability": "view",
      "type": "function"
    },
    {
      "inputs": [],
      "payable": false,
      "stateMutability": "nonpayable",
      "type": "constructor"
    },
    {
      "payable": true,
      "stateMutability": "payable",
      "type": "fallback"
    },
    {
      "anonymous": false,
      "inputs": [
        {
          "indexed": false,
          "name": "amount",
          "type": "uint256"
        }
      ],
      "name": "received",
      "type": "event"
    },
    {
      "constant": false,
      "inputs": [],
      "name": "createPool",
      "outputs": [
        {
          "name": "a",
          "type": "address"
        }
      ],
      "payable": false,
      "stateMutability": "nonpayable",
      "type": "function"
    },
    {
      "constant": true,
      "inputs": [],
      "name": "getBalance",
      "outputs": [
        {
          "name": "",
          "type": "uint256"
        }
      ],
      "payable": false,
      "stateMutability": "view",
      "type": "function"
    },
    {
      "constant": true,
      "inputs": [],
      "name": "canCreatePool",
      "outputs": [
        {
          "name": "",
          "type": "bool"
        }
      ],
      "payable": false,
      "stateMutability": "view",
      "type": "function"
    },
    {
      "constant": false,
      "inputs": [],
      "name": "deposit",
      "outputs": [],
      "payable": true,
      "stateMutability": "payable",
      "type": "function"
    },
    {
      "constant": false,
      "inputs": [
        {
          "name": "amount",
          "type": "uint256"
        }
      ],
      "name": "withdraw",
      "outputs": [],
      "payable": false,
      "stateMutability": "nonpayable",
      "type": "function"
    },
    {
      "constant": false,
      "inputs": [],
      "name": "end",
      "outputs": [],
      "payable": false,
      "stateMutability": "nonpayable",
      "type": "function"
    },
    {
      "constant": false,
      "inputs": [],
      "name": "withdrawStake",
      "outputs": [],
      "payable": false,
      "stateMutability": "nonpayable",
      "type": "function"
    },
    {
      "constant": false,
      "inputs": [],
      "name": "logout",
      "outputs": [],
      "payable": false,
      "stateMutability": "nonpayable",
      "type": "function"
    },
    {
      "constant": true,
      "inputs": [],
      "name": "canLogout",
      "outputs": [
        {
          "name": "",
          "type": "bool"
        }
      ],
      "payable": false,
      "stateMutability": "view",
      "type": "function"
    },
    {
      "constant": true,
      "inputs": [],
      "name": "canWithdraw",
      "outputs": [
        {
          "name": "",
          "type": "bool"
        }
      ],
      "payable": false,
      "stateMutability": "view",
      "type": "function"
    },
    {
      "constant": true,
      "inputs": [],
      "name": "canEnd",
      "outputs": [
        {
          "name": "",
          "type": "bool"
        }
      ],
      "payable": false,
      "stateMutability": "view",
      "type": "function"
    }
  ],
  "bytecode": "0x606060405273692a70d2e424a56d2c6c27aa97d1a86395877b3a600760006101000a81548173ffffffffffffffffffffffffffffffffffffffff021916908373ffffffffffffffffffffffffffffffffffffffff1602179055506002600955341561006957600080fd5b33600660006101000a81548173ffffffffffffffffffffffffffffffffffffffff021916908373ffffffffffffffffffffffffffffffffffffffff160217905550600760009054906101000a900473ffffffffffffffffffffffffffffffffffffffff166000806101000a81548173ffffffffffffffffffffffffffffffffffffffff021916908373ffffffffffffffffffffffffffffffffffffffff160217905550611bf28061011b6000396000f300606060405260043610610107576000357c0100000000000000000000000000000000000000000000000000000000900463ffffffff1680630288a39c1461014057806312065fe0146101695780631f3c99c314610192578063228df408146101a75780632e1a7d4d146101d05780632fb10de6146101f357806335c62bc214610256578063394ffb8c1461027f578063683266ac146102ac5780637f6e600c146102d55780638bd0fe48146102fe5780638da5cb5b1461032b5780639a06b11314610380578063abf3969e146103d5578063b51459fe14610402578063bed9d8611461042f578063d0e30db014610444578063e15fad061461044e578063efbe1c1c14610477575b7fe66f0a779f42a53dbb677b5713ab20003216db33f14e5e97ae193ea7c04432c0346040518082815260200191505060405180910390a1005b341561014b57600080fd5b61015361048c565b6040518082815260200191505060405180910390f35b341561017457600080fd5b61017c610492565b6040518082815260200191505060405180910390f35b341561019d57600080fd5b6101a56104b1565b005b34156101b257600080fd5b6101ba610584565b6040518082815260200191505060405180910390f35b34156101db57600080fd5b6101f1600480803590602001909190505061058a565b005b34156101fe57600080fd5b610214600480803590602001909190505061062b565b604051808273ffffffffffffffffffffffffffffffffffffffff1673ffffffffffffffffffffffffffffffffffffffff16815260200191505060405180910390f35b341561026157600080fd5b61026961065e565b6040518082815260200191505060405180910390f35b341561028a57600080fd5b610292610664565b604051808215151515815260200191505060405180910390f35b34156102b757600080fd5b6102bf610727565b6040518082815260200191505060405180910390f35b34156102e057600080fd5b6102e861072d565b6040518082815260200191505060405180910390f35b341561030957600080fd5b610311610733565b604051808215151515815260200191505060405180910390f35b341561033657600080fd5b61033e61075e565b604051808273ffffffffffffffffffffffffffffffffffffffff1673ffffffffffffffffffffffffffffffffffffffff16815260200191505060405180910390f35b341561038b57600080fd5b610393610784565b604051808273ffffffffffffffffffffffffffffffffffffffff1673ffffffffffffffffffffffffffffffffffffffff16815260200191505060405180910390f35b34156103e057600080fd5b6103e861098c565b604051808215151515815260200191505060405180910390f35b341561040d57600080fd5b610415610a4f565b604051808215151515815260200191505060405180910390f35b341561043a57600080fd5b610442610b12565b005b61044c610be5565b005b341561045957600080fd5b610461610c1e565b6040518082815260200191505060405180910390f35b341561048257600080fd5b61048a610c24565b005b60095481565b60003073ffffffffffffffffffffffffffffffffffffffff1631905090565b6104b9610664565b15156104c457600080fd5b60016000600354815260200190815260200160002060009054906101000a900473ffffffffffffffffffffffffffffffffffffffff1673ffffffffffffffffffffffffffffffffffffffff16631f3c99c36040518163ffffffff167c0100000000000000000000000000000000000000000000000000000000028152600401600060405180830381600087803b151561055c57600080fd5b6102c65a03f1151561056d57600080fd5b505050600360008154809291906001019190505550565b60035481565b600660009054906101000a900473ffffffffffffffffffffffffffffffffffffffff168073ffffffffffffffffffffffffffffffffffffffff163373ffffffffffffffffffffffffffffffffffffffff161415156105e757600080fd5b3373ffffffffffffffffffffffffffffffffffffffff166108fc839081150290604051600060405180830381858888f19350505050151561062757600080fd5b5050565b60016020528060005260406000206000915054906101000a900473ffffffffffffffffffffffffffffffffffffffff1681565b60025481565b600060016000600354815260200190815260200160002060009054906101000a900473ffffffffffffffffffffffffffffffffffffffff1673ffffffffffffffffffffffffffffffffffffffff1663394ffb8c6000604051602001526040518163ffffffff167c0100000000000000000000000000000000000000000000000000000000028152600401602060405180830381600087803b151561070757600080fd5b6102c65a03f1151561071857600080fd5b50505060405180519050905090565b60055481565b60085481565b60006801158e460913d000003073ffffffffffffffffffffffffffffffffffffffff16311015905090565b600660009054906101000a900473ffffffffffffffffffffffffffffffffffffffff1681565b60008061078f610733565b151561079a57600080fd5b600760009054906101000a900473ffffffffffffffffffffffffffffffffffffffff166107c5610cf7565b808273ffffffffffffffffffffffffffffffffffffffff1673ffffffffffffffffffffffffffffffffffffffff168152602001915050604051809103906000f080151561081157600080fd5b90508060016000600254815260200190815260200160002060006101000a81548173ffffffffffffffffffffffffffffffffffffffff021916908373ffffffffffffffffffffffffffffffffffffffff1602179055508073ffffffffffffffffffffffffffffffffffffffff1663d0e30db06801158e460913d000006040518263ffffffff167c01000000000000000000000000000000000000000000000000000000000281526004016000604051808303818588803b15156108d357600080fd5b6125ee5a03f115156108e457600080fd5b505050508073ffffffffffffffffffffffffffffffffffffffff1663a694fc3a6801158e460913d000006040518263ffffffff167c010000000000000000000000000000000000000000000000000000000002815260040180828152602001915050600060405180830381600087803b151561095f57600080fd5b6102c65a03f1151561097057600080fd5b5050506002600081548092919060010191905055508091505090565b600060016000600554815260200190815260200160002060009054906101000a900473ffffffffffffffffffffffffffffffffffffffff1673ffffffffffffffffffffffffffffffffffffffff1663abf3969e6000604051602001526040518163ffffffff167c0100000000000000000000000000000000000000000000000000000000028152600401602060405180830381600087803b1515610a2f57600080fd5b6102c65a03f11515610a4057600080fd5b50505060405180519050905090565b600060016000600454815260200190815260200160002060009054906101000a900473ffffffffffffffffffffffffffffffffffffffff1673ffffffffffffffffffffffffffffffffffffffff1663b51459fe6000604051602001526040518163ffffffff167c0100000000000000000000000000000000000000000000000000000000028152600401602060405180830381600087803b1515610af257600080fd5b6102c65a03f11515610b0357600080fd5b50505060405180519050905090565b610b1a610a4f565b1515610b2557600080fd5b60016000600454815260200190815260200160002060009054906101000a900473ffffffffffffffffffffffffffffffffffffffff1673ffffffffffffffffffffffffffffffffffffffff1663bed9d8616040518163ffffffff167c0100000000000000000000000000000000000000000000000000000000028152600401600060405180830381600087803b1515610bbd57600080fd5b6102c65a03f11515610bce57600080fd5b505050600460008154809291906001019190505550565b7fe66f0a779f42a53dbb677b5713ab20003216db33f14e5e97ae193ea7c04432c0346040518082815260200191505060405180910390a1565b60045481565b610c2c61098c565b1515610c3757600080fd5b60016000600554815260200190815260200160002060009054906101000a900473ffffffffffffffffffffffffffffffffffffffff1673ffffffffffffffffffffffffffffffffffffffff1663efbe1c1c6040518163ffffffff167c0100000000000000000000000000000000000000000000000000000000028152600401600060405180830381600087803b1515610ccf57600080fd5b6102c65a03f11515610ce057600080fd5b505050600560008154809291906001019190505550565b604051610ebf80610d08833901905600606060405260026003556006600555341561001957600080fd5b604051602080610ebf8339810160405280805190602001909190505033600160006101000a81548173ffffffffffffffffffffffffffffffffffffffff021916908373ffffffffffffffffffffffffffffffffffffffff160217905550806000806101000a81548173ffffffffffffffffffffffffffffffffffffffff021916908373ffffffffffffffffffffffffffffffffffffffff1602179055506000809054906101000a900473ffffffffffffffffffffffffffffffffffffffff1673ffffffffffffffffffffffffffffffffffffffff1663a0b286d66000604051602001526040518163ffffffff167c0100000000000000000000000000000000000000000000000000000000028152600401602060405180830381600087803b151561014357600080fd5b6102c65a03f1151561015457600080fd5b505050604051805190506fffffffffffffffffffffffffffffffff166004819055506000600160156101000a81548160ff02191690831515021790555050610d1e806101a16000396000f3006060604052600436106100fb576000357c0100000000000000000000000000000000000000000000000000000000900463ffffffff168062f2bb91146101345780630288a39c1461018957806302fb0c5e146101b257806312065fe0146101df5780631f3c99c3146102085780632e1a7d4d1461021d5780633238194f14610240578063394ffb8c146102695780637f6e600c146102965780638da5cb5b146102bf578063a694fc3a14610314578063abf3969e14610337578063b51459fe14610364578063b77a2c1c14610391578063bed9d861146103ba578063c80ec522146103cf578063d0e30db0146103fc578063efbe1c1c14610406575b7fe66f0a779f42a53dbb677b5713ab20003216db33f14e5e97ae193ea7c04432c0346040518082815260200191505060405180910390a1005b341561013f57600080fd5b61014761041b565b604051808273ffffffffffffffffffffffffffffffffffffffff1673ffffffffffffffffffffffffffffffffffffffff16815260200191505060405180910390f35b341561019457600080fd5b61019c610440565b6040518082815260200191505060405180910390f35b34156101bd57600080fd5b6101c5610446565b604051808215151515815260200191505060405180910390f35b34156101ea57600080fd5b6101f2610459565b6040518082815260200191505060405180910390f35b341561021357600080fd5b61021b610478565b005b341561022857600080fd5b61023e6004808035906020019091905050610657565b005b341561024b57600080fd5b6102536106f8565b6040518082815260200191505060405180910390f35b341561027457600080fd5b61027c6106fe565b604051808215151515815260200191505060405180910390f35b34156102a157600080fd5b6102a96107c8565b6040518082815260200191505060405180910390f35b34156102ca57600080fd5b6102d26107ce565b604051808273ffffffffffffffffffffffffffffffffffffffff1673ffffffffffffffffffffffffffffffffffffffff16815260200191505060405180910390f35b341561031f57600080fd5b61033560048080359060200190919050506107f4565b005b341561034257600080fd5b61034a61093b565b604051808215151515815260200191505060405180910390f35b341561036f57600080fd5b610377610952565b604051808215151515815260200191505060405180910390f35b341561039c57600080fd5b6103a4610a1c565b6040518082815260200191505060405180910390f35b34156103c557600080fd5b6103cd610a22565b005b34156103da57600080fd5b6103e2610bfb565b604051808215151515815260200191505060405180910390f35b610404610c0e565b005b341561041157600080fd5b610419610c47565b005b6000809054906101000a900473ffffffffffffffffffffffffffffffffffffffff1681565b60035481565b600160149054906101000a900460ff1681565b60003073ffffffffffffffffffffffffffffffffffffffff1631905090565b600160149054906101000a900460ff16151561049357600080fd5b61049b6106fe565b15156104a657600080fd5b6000809054906101000a900473ffffffffffffffffffffffffffffffffffffffff1673ffffffffffffffffffffffffffffffffffffffff166342310c326040518163ffffffff167c01000000000000000000000000000000000000000000000000000000000281526004018080602001828103825260038152602001807f4279650000000000000000000000000000000000000000000000000000000000815250602001915050600060405180830381600087803b151561056657600080fd5b6102c65a03f1151561057757600080fd5b5050506000809054906101000a900473ffffffffffffffffffffffffffffffffffffffff1673ffffffffffffffffffffffffffffffffffffffff1663a0b286d66000604051602001526040518163ffffffff167c0100000000000000000000000000000000000000000000000000000000028152600401602060405180830381600087803b151561060757600080fd5b6102c65a03f1151561061857600080fd5b505050604051805190506fffffffffffffffffffffffffffffffff166002819055506000600160146101000a81548160ff021916908315150217905550565b600160009054906101000a900473ffffffffffffffffffffffffffffffffffffffff168073ffffffffffffffffffffffffffffffffffffffff163373ffffffffffffffffffffffffffffffffffffffff161415156106b457600080fd5b3373ffffffffffffffffffffffffffffffffffffffff166108fc839081150290604051600060405180830381858888f1935050505015156106f457600080fd5b5050565b60045481565b6000600554600454016000809054906101000a900473ffffffffffffffffffffffffffffffffffffffff1673ffffffffffffffffffffffffffffffffffffffff1663a0b286d66000604051602001526040518163ffffffff167c0100000000000000000000000000000000000000000000000000000000028152600401602060405180830381600087803b151561079457600080fd5b6102c65a03f115156107a557600080fd5b505050604051805190506fffffffffffffffffffffffffffffffff161015905090565b60025481565b600160009054906101000a900473ffffffffffffffffffffffffffffffffffffffff1681565b3073ffffffffffffffffffffffffffffffffffffffff1631811115151561081a57600080fd5b6000809054906101000a900473ffffffffffffffffffffffffffffffffffffffff1673ffffffffffffffffffffffffffffffffffffffff1663f9609f088230306040518463ffffffff167c0100000000000000000000000000000000000000000000000000000000028152600401808373ffffffffffffffffffffffffffffffffffffffff1673ffffffffffffffffffffffffffffffffffffffff1681526020018273ffffffffffffffffffffffffffffffffffffffff1673ffffffffffffffffffffffffffffffffffffffff168152602001925050506000604051808303818588803b151561090957600080fd5b6125ee5a03f1151561091a57600080fd5b5050505060018060146101000a81548160ff02191690831515021790555050565b6000600160159054906101000a900460ff16905090565b6000600354600254016000809054906101000a900473ffffffffffffffffffffffffffffffffffffffff1673ffffffffffffffffffffffffffffffffffffffff1663a0b286d66000604051602001526040518163ffffffff167c0100000000000000000000000000000000000000000000000000000000028152600401602060405180830381600087803b15156109e857600080fd5b6102c65a03f115156109f957600080fd5b505050604051805190506fffffffffffffffffffffffffffffffff161015905090565b60055481565b6000610a2c610952565b1515610a3757600080fd5b6000809054906101000a900473ffffffffffffffffffffffffffffffffffffffff1673ffffffffffffffffffffffffffffffffffffffff1663e46cec60306000604051602001526040518263ffffffff167c0100000000000000000000000000000000000000000000000000000000028152600401808273ffffffffffffffffffffffffffffffffffffffff1673ffffffffffffffffffffffffffffffffffffffff168152602001915050602060405180830381600087803b1515610afb57600080fd5b6102c65a03f11515610b0c57600080fd5b505050604051805190506fffffffffffffffffffffffffffffffff1690506000809054906101000a900473ffffffffffffffffffffffffffffffffffffffff1673ffffffffffffffffffffffffffffffffffffffff16632e1a7d4d826000604051602001526040518263ffffffff167c010000000000000000000000000000000000000000000000000000000002815260040180828152602001915050602060405180830381600087803b1515610bc257600080fd5b6102c65a03f11515610bd357600080fd5b505050604051805190505060018060156101000a81548160ff02191690831515021790555050565b600160159054906101000a900460ff1681565b7fe66f0a779f42a53dbb677b5713ab20003216db33f14e5e97ae193ea7c04432c0346040518082815260200191505060405180910390a1565b600160009054906101000a900473ffffffffffffffffffffffffffffffffffffffff168073ffffffffffffffffffffffffffffffffffffffff163373ffffffffffffffffffffffffffffffffffffffff16141515610ca457600080fd5b610cac61093b565b1515610cb757600080fd5b600160009054906101000a900473ffffffffffffffffffffffffffffffffffffffff1673ffffffffffffffffffffffffffffffffffffffff16ff00a165627a7a7230582046c9c0b70bb744e6116eef3c0c8aca871d4512c83517a3b1d1b4df7a593846e70029a165627a7a72305820fc22b568db1aee9d448708ef08e457ed9bdedca4e9329c43c352ea38d8197cc50029",
  "source": "pragma solidity ^0.4.0;\n\nimport \"./interfaces/CasperInterface.sol\";\nimport \"./StakePool.sol\";\n\ncontract StakeAgent {\n    CasperInterface casper;\n\n    mapping(uint => StakePool) public deployedStakePools;\n    uint public numPools;\n    uint public logoutCursor;\n    uint public withdrawCursor;    \n    uint public endCursor;\n    address public owner;\n    address internal casperAddress = address(0x692a70d2e424a56d2c6c27aa97d1a86395877b3a);\n    uint public logoutDynasty;\n    uint public withdrawDelay = 2;\n\n    function StakeAgent(){\n        owner = msg.sender;\n        casper = CasperInterface(casperAddress);\n    }\n\n    modifier onlyBy(address _account)\n    {\n        require(msg.sender == _account);\n        _;\n    }\n\n    event received(uint amount);\n\n    function () payable public {\n      received(msg.value);\n    }\n\n    function createPool() returns(address a){\n        require(canCreatePool());\n        StakePool stakePool = new StakePool(casperAddress);\n        deployedStakePools[numPools] = stakePool;\n        stakePool.deposit.value(20 ether)();\n        stakePool.stake(20 ether);\n        numPools++;\n        return stakePool;\n    }\n\n    function getBalance() constant public returns(uint256) {\n        return address(this).balance;\n    }\n    \n    function canCreatePool() constant public returns(bool) {\n        return address(this).balance >= 20 ether;\n    }\n\n    function deposit() public payable {\n        received(msg.value);\n    }\n\n    function withdraw(uint amount) public onlyBy(owner) {\n        msg.sender.transfer(amount);\n    }\n    \n    function end() public {\n        require(canEnd());\n        deployedStakePools[endCursor].end();\n        endCursor++;\n    }\n    \n    function withdrawStake() public {\n        require(canWithdraw());\n        deployedStakePools[withdrawCursor].withdrawStake();\n        withdrawCursor++;\n    }\n    \n    function logout() public {\n        require(canLogout());\n        deployedStakePools[logoutCursor].logout();\n        logoutCursor++;\n    }\n    \n    function canLogout() constant public returns (bool) {\n        return deployedStakePools[logoutCursor].canLogout();\n    }\n    \n    function canWithdraw() constant public returns (bool) {\n        return deployedStakePools[withdrawCursor].canWithdraw();\n    }\n    \n    function canEnd() constant public returns (bool) {\n        return deployedStakePools[endCursor].canEnd();\n    }\n\n\n}\n",
  "sourcePath": "/home/hartger/code/divtest-master/app/contracts/StakeAgent.sol",
  "compiler": {
    "name": "solc",
    "version": "0.4.19+commit.c4cbbb05.Emscripten.clang"
  },
  "schemaVersion": "1.0.1",
  "updatedAt": "2018-03-14T13:10:20.578Z"
}