{
  "contractName": "StakePool",
  "abi": [
    {
      "constant": true,
      "inputs": [],
      "name": "casper",
      "outputs": [
        {
          "name": "",
          "type": "address"
        }
      ],
      "payable": false,
      "stateMutability": "view",
      "type": "function"
    },
    {
      "constant": true,
      "inputs": [],
      "name": "withdrawDelay",
      "outputs": [
        {
          "name": "",
          "type": "uint256"
        }
      ],
      "payable": false,
      "stateMutability": "view",
      "type": "function"
    },
    {
      "constant": true,
      "inputs": [],
      "name": "active",
      "outputs": [
        {
          "name": "",
          "type": "bool"
        }
      ],
      "payable": false,
      "stateMutability": "view",
      "type": "function"
    },
    {
      "constant": true,
      "inputs": [],
      "name": "startDynasty",
      "outputs": [
        {
          "name": "",
          "type": "uint256"
        }
      ],
      "payable": false,
      "stateMutability": "view",
      "type": "function"
    },
    {
      "constant": true,
      "inputs": [],
      "name": "logoutDynasty",
      "outputs": [
        {
          "name": "",
          "type": "uint256"
        }
      ],
      "payable": false,
      "stateMutability": "view",
      "type": "function"
    },
    {
      "constant": true,
      "inputs": [],
      "name": "owner",
      "outputs": [
        {
          "name": "",
          "type": "address"
        }
      ],
      "payable": false,
      "stateMutability": "view",
      "type": "function"
    },
    {
      "constant": true,
      "inputs": [],
      "name": "stakeTime",
      "outputs": [
        {
          "name": "",
          "type": "uint256"
        }
      ],
      "payable": false,
      "stateMutability": "view",
      "type": "function"
    },
    {
      "constant": true,
      "inputs": [],
      "name": "withdrawn",
      "outputs": [
        {
          "name": "",
          "type": "bool"
        }
      ],
      "payable": false,
      "stateMutability": "view",
      "type": "function"
    },
    {
      "inputs": [
        {
          "name": "casperAddress",
          "type": "address"
        }
      ],
      "payable": false,
      "stateMutability": "nonpayable",
      "type": "constructor"
    },
    {
      "payable": true,
      "stateMutability": "payable",
      "type": "fallback"
    },
    {
      "anonymous": false,
      "inputs": [
        {
          "indexed": false,
          "name": "amount",
          "type": "uint256"
        }
      ],
      "name": "received",
      "type": "event"
    },
    {
      "constant": true,
      "inputs": [],
      "name": "getBalance",
      "outputs": [
        {
          "name": "",
          "type": "uint256"
        }
      ],
      "payable": false,
      "stateMutability": "view",
      "type": "function"
    },
    {
      "constant": false,
      "inputs": [],
      "name": "deposit",
      "outputs": [],
      "payable": true,
      "stateMutability": "payable",
      "type": "function"
    },
    {
      "constant": false,
      "inputs": [
        {
          "name": "amount",
          "type": "uint256"
        }
      ],
      "name": "withdraw",
      "outputs": [],
      "payable": false,
      "stateMutability": "nonpayable",
      "type": "function"
    },
    {
      "constant": false,
      "inputs": [],
      "name": "end",
      "outputs": [],
      "payable": false,
      "stateMutability": "nonpayable",
      "type": "function"
    },
    {
      "constant": false,
      "inputs": [
        {
          "name": "amount",
          "type": "uint256"
        }
      ],
      "name": "stake",
      "outputs": [],
      "payable": false,
      "stateMutability": "nonpayable",
      "type": "function"
    },
    {
      "constant": false,
      "inputs": [],
      "name": "withdrawStake",
      "outputs": [],
      "payable": false,
      "stateMutability": "nonpayable",
      "type": "function"
    },
    {
      "constant": false,
      "inputs": [],
      "name": "logout",
      "outputs": [],
      "payable": false,
      "stateMutability": "nonpayable",
      "type": "function"
    },
    {
      "constant": true,
      "inputs": [],
      "name": "canLogout",
      "outputs": [
        {
          "name": "",
          "type": "bool"
        }
      ],
      "payable": false,
      "stateMutability": "view",
      "type": "function"
    },
    {
      "constant": true,
      "inputs": [],
      "name": "canWithdraw",
      "outputs": [
        {
          "name": "",
          "type": "bool"
        }
      ],
      "payable": false,
      "stateMutability": "view",
      "type": "function"
    },
    {
      "constant": true,
      "inputs": [],
      "name": "canEnd",
      "outputs": [
        {
          "name": "",
          "type": "bool"
        }
      ],
      "payable": false,
      "stateMutability": "view",
      "type": "function"
    }
  ],
  "bytecode": "0x606060405260026003556006600555341561001957600080fd5b604051602080610ebf8339810160405280805190602001909190505033600160006101000a81548173ffffffffffffffffffffffffffffffffffffffff021916908373ffffffffffffffffffffffffffffffffffffffff160217905550806000806101000a81548173ffffffffffffffffffffffffffffffffffffffff021916908373ffffffffffffffffffffffffffffffffffffffff1602179055506000809054906101000a900473ffffffffffffffffffffffffffffffffffffffff1673ffffffffffffffffffffffffffffffffffffffff1663a0b286d66000604051602001526040518163ffffffff167c0100000000000000000000000000000000000000000000000000000000028152600401602060405180830381600087803b151561014357600080fd5b6102c65a03f1151561015457600080fd5b505050604051805190506fffffffffffffffffffffffffffffffff166004819055506000600160156101000a81548160ff02191690831515021790555050610d1e806101a16000396000f3006060604052600436106100fb576000357c0100000000000000000000000000000000000000000000000000000000900463ffffffff168062f2bb91146101345780630288a39c1461018957806302fb0c5e146101b257806312065fe0146101df5780631f3c99c3146102085780632e1a7d4d1461021d5780633238194f14610240578063394ffb8c146102695780637f6e600c146102965780638da5cb5b146102bf578063a694fc3a14610314578063abf3969e14610337578063b51459fe14610364578063b77a2c1c14610391578063bed9d861146103ba578063c80ec522146103cf578063d0e30db0146103fc578063efbe1c1c14610406575b7fe66f0a779f42a53dbb677b5713ab20003216db33f14e5e97ae193ea7c04432c0346040518082815260200191505060405180910390a1005b341561013f57600080fd5b61014761041b565b604051808273ffffffffffffffffffffffffffffffffffffffff1673ffffffffffffffffffffffffffffffffffffffff16815260200191505060405180910390f35b341561019457600080fd5b61019c610440565b6040518082815260200191505060405180910390f35b34156101bd57600080fd5b6101c5610446565b604051808215151515815260200191505060405180910390f35b34156101ea57600080fd5b6101f2610459565b6040518082815260200191505060405180910390f35b341561021357600080fd5b61021b610478565b005b341561022857600080fd5b61023e6004808035906020019091905050610657565b005b341561024b57600080fd5b6102536106f8565b6040518082815260200191505060405180910390f35b341561027457600080fd5b61027c6106fe565b604051808215151515815260200191505060405180910390f35b34156102a157600080fd5b6102a96107c8565b6040518082815260200191505060405180910390f35b34156102ca57600080fd5b6102d26107ce565b604051808273ffffffffffffffffffffffffffffffffffffffff1673ffffffffffffffffffffffffffffffffffffffff16815260200191505060405180910390f35b341561031f57600080fd5b61033560048080359060200190919050506107f4565b005b341561034257600080fd5b61034a61093b565b604051808215151515815260200191505060405180910390f35b341561036f57600080fd5b610377610952565b604051808215151515815260200191505060405180910390f35b341561039c57600080fd5b6103a4610a1c565b6040518082815260200191505060405180910390f35b34156103c557600080fd5b6103cd610a22565b005b34156103da57600080fd5b6103e2610bfb565b604051808215151515815260200191505060405180910390f35b610404610c0e565b005b341561041157600080fd5b610419610c47565b005b6000809054906101000a900473ffffffffffffffffffffffffffffffffffffffff1681565b60035481565b600160149054906101000a900460ff1681565b60003073ffffffffffffffffffffffffffffffffffffffff1631905090565b600160149054906101000a900460ff16151561049357600080fd5b61049b6106fe565b15156104a657600080fd5b6000809054906101000a900473ffffffffffffffffffffffffffffffffffffffff1673ffffffffffffffffffffffffffffffffffffffff166342310c326040518163ffffffff167c01000000000000000000000000000000000000000000000000000000000281526004018080602001828103825260038152602001807f4279650000000000000000000000000000000000000000000000000000000000815250602001915050600060405180830381600087803b151561056657600080fd5b6102c65a03f1151561057757600080fd5b5050506000809054906101000a900473ffffffffffffffffffffffffffffffffffffffff1673ffffffffffffffffffffffffffffffffffffffff1663a0b286d66000604051602001526040518163ffffffff167c0100000000000000000000000000000000000000000000000000000000028152600401602060405180830381600087803b151561060757600080fd5b6102c65a03f1151561061857600080fd5b505050604051805190506fffffffffffffffffffffffffffffffff166002819055506000600160146101000a81548160ff021916908315150217905550565b600160009054906101000a900473ffffffffffffffffffffffffffffffffffffffff168073ffffffffffffffffffffffffffffffffffffffff163373ffffffffffffffffffffffffffffffffffffffff161415156106b457600080fd5b3373ffffffffffffffffffffffffffffffffffffffff166108fc839081150290604051600060405180830381858888f1935050505015156106f457600080fd5b5050565b60045481565b6000600554600454016000809054906101000a900473ffffffffffffffffffffffffffffffffffffffff1673ffffffffffffffffffffffffffffffffffffffff1663a0b286d66000604051602001526040518163ffffffff167c0100000000000000000000000000000000000000000000000000000000028152600401602060405180830381600087803b151561079457600080fd5b6102c65a03f115156107a557600080fd5b505050604051805190506fffffffffffffffffffffffffffffffff161015905090565b60025481565b600160009054906101000a900473ffffffffffffffffffffffffffffffffffffffff1681565b3073ffffffffffffffffffffffffffffffffffffffff1631811115151561081a57600080fd5b6000809054906101000a900473ffffffffffffffffffffffffffffffffffffffff1673ffffffffffffffffffffffffffffffffffffffff1663f9609f088230306040518463ffffffff167c0100000000000000000000000000000000000000000000000000000000028152600401808373ffffffffffffffffffffffffffffffffffffffff1673ffffffffffffffffffffffffffffffffffffffff1681526020018273ffffffffffffffffffffffffffffffffffffffff1673ffffffffffffffffffffffffffffffffffffffff168152602001925050506000604051808303818588803b151561090957600080fd5b6125ee5a03f1151561091a57600080fd5b5050505060018060146101000a81548160ff02191690831515021790555050565b6000600160159054906101000a900460ff16905090565b6000600354600254016000809054906101000a900473ffffffffffffffffffffffffffffffffffffffff1673ffffffffffffffffffffffffffffffffffffffff1663a0b286d66000604051602001526040518163ffffffff167c0100000000000000000000000000000000000000000000000000000000028152600401602060405180830381600087803b15156109e857600080fd5b6102c65a03f115156109f957600080fd5b505050604051805190506fffffffffffffffffffffffffffffffff161015905090565b60055481565b6000610a2c610952565b1515610a3757600080fd5b6000809054906101000a900473ffffffffffffffffffffffffffffffffffffffff1673ffffffffffffffffffffffffffffffffffffffff1663e46cec60306000604051602001526040518263ffffffff167c0100000000000000000000000000000000000000000000000000000000028152600401808273ffffffffffffffffffffffffffffffffffffffff1673ffffffffffffffffffffffffffffffffffffffff168152602001915050602060405180830381600087803b1515610afb57600080fd5b6102c65a03f11515610b0c57600080fd5b505050604051805190506fffffffffffffffffffffffffffffffff1690506000809054906101000a900473ffffffffffffffffffffffffffffffffffffffff1673ffffffffffffffffffffffffffffffffffffffff16632e1a7d4d826000604051602001526040518263ffffffff167c010000000000000000000000000000000000000000000000000000000002815260040180828152602001915050602060405180830381600087803b1515610bc257600080fd5b6102c65a03f11515610bd357600080fd5b505050604051805190505060018060156101000a81548160ff02191690831515021790555050565b600160159054906101000a900460ff1681565b7fe66f0a779f42a53dbb677b5713ab20003216db33f14e5e97ae193ea7c04432c0346040518082815260200191505060405180910390a1565b600160009054906101000a900473ffffffffffffffffffffffffffffffffffffffff168073ffffffffffffffffffffffffffffffffffffffff163373ffffffffffffffffffffffffffffffffffffffff16141515610ca457600080fd5b610cac61093b565b1515610cb757600080fd5b600160009054906101000a900473ffffffffffffffffffffffffffffffffffffffff1673ffffffffffffffffffffffffffffffffffffffff16ff00a165627a7a7230582046c9c0b70bb744e6116eef3c0c8aca871d4512c83517a3b1d1b4df7a593846e70029",
  "source": "pragma solidity ^0.4.0;\n\nimport \"./interfaces/CasperInterface.sol\";\n\ncontract StakePool {\n    CasperInterface public casper;\n    address public owner;\n    bool public active;\n    bool public withdrawn;\n    uint public logoutDynasty;\n    uint public withdrawDelay = 2;\n    uint public startDynasty;\n    uint public stakeTime = 6; //18550 dynasties is ~1 year, if 1 block = 17s and 1 dynasty = 100 blocks\n\n    function StakePool(address casperAddress){\n        owner = msg.sender; \n        casper = CasperInterface(casperAddress);\n        startDynasty = casper.get_dynasty();\n        withdrawn = false;\n    }\n    \n    modifier onlyBy(address _account)\n    {\n        require(msg.sender == _account);\n        _;\n    }\n    \n    modifier isActive() {\n        require(active);\n        _;\n    }\n\n    event received(uint amount);\n\n    function () payable public {\n      received(msg.value);\n    }\n    \n    function getBalance() constant public returns(uint256) {\n        return address(this).balance;\n    }\n\n    function deposit() public payable {\n        received(msg.value);\n    }\n    \n    function withdraw(uint amount) public onlyBy(owner) {\n        msg.sender.transfer(amount);\n    }\n\n    function end() public onlyBy(owner) {\n        require(canEnd());\n        selfdestruct(owner);\n    }\n    \n    function stake(uint amount) public {\n        require(amount <= address(this).balance);\n        casper.deposit.value(amount)(address(this), address(this));\n        active = true;\n    }\n    \n    function withdrawStake() public {\n        require(canWithdraw());\n        uint index = casper.get_validator_indexes(address(this));\n        casper.withdraw(index);\n        withdrawn = true;\n    }\n    \n    function logout() public isActive {\n        require(canLogout());\n        casper.logout(\"Bye\");\n        logoutDynasty = casper.get_dynasty();\n        active = false;\n    }\n    \n    function canLogout() constant public returns (bool) {\n        return (casper.get_dynasty() >= startDynasty + stakeTime);\n    }\n    \n    function canWithdraw() constant public returns (bool) {\n        return (casper.get_dynasty() >= logoutDynasty + withdrawDelay);\n    }\n    \n    function canEnd() constant public returns (bool) {\n        return (withdrawn);\n    }\n\n}\n",
  "sourcePath": "/home/hartger/code/divtest-master/app/contracts/StakePool.sol",
  "compiler": {
    "name": "solc",
    "version": "0.4.19+commit.c4cbbb05.Emscripten.clang"
  },
  "schemaVersion": "1.0.1",
  "updatedAt": "2018-03-14T13:10:15.594Z"
}