{
  "contractName": "StakeAgent",
  "abi": [
    {
      "constant": true,
      "inputs": [],
      "name": "balance",
      "outputs": [
        {
          "name": "",
          "type": "uint256"
        }
      ],
      "payable": false,
      "stateMutability": "view",
      "type": "function"
    },
    {
      "inputs": [],
      "payable": false,
      "stateMutability": "nonpayable",
      "type": "constructor"
    },
    {
      "payable": true,
      "stateMutability": "payable",
      "type": "fallback"
    },
    {
      "anonymous": false,
      "inputs": [
        {
          "indexed": false,
          "name": "amount",
          "type": "uint256"
        }
      ],
      "name": "received",
      "type": "event"
    },
    {
      "constant": true,
      "inputs": [
        {
          "name": "v",
          "type": "uint256"
        }
      ],
      "name": "uintToBytes",
      "outputs": [
        {
          "name": "ret",
          "type": "bytes32"
        }
      ],
      "payable": false,
      "stateMutability": "view",
      "type": "function"
    }
  ],
  "bytecode": "0x6060604052341561000f57600080fd5b6101e38061001e6000396000f30060606040526004361061004c576000357c0100000000000000000000000000000000000000000000000000000000900463ffffffff16806394e8767d14610066578063b69ef8a8146100a5575b346000808282540192505081905550610064346100ce565b005b341561007157600080fd5b6100876004808035906020019091905050610108565b60405180826000191660001916815260200191505060405180910390f35b34156100b057600080fd5b6100b86101b1565b6040518082815260200191505060405180910390f35b7fe66f0a779f42a53dbb677b5713ab20003216db33f14e5e97ae193ea7c04432c0816040518082815260200191505060405180910390a150565b60008082141561013a577f300000000000000000000000000000000000000000000000000000000000000090506101a9565b5b60008211156101a857610100816001900481151561015557fe5b0460010290507f01000000000000000000000000000000000000000000000000000000000000006030600a8481151561018a57fe5b06010260010281179050600a828115156101a057fe5b04915061013b565b5b809050919050565b600054815600a165627a7a72305820992c785bc982147e02db4405865fd12c512851dba55151832f8955b89a62457e0029",
  "source": "pragma solidity ^0.4.0;\n\ncontract StakeAgent {\n\n    uint public balance;\n\n    function StakeAgent(){\n\n    }\n\n    event received(uint amount);\n\n    function () payable public {\n//        require(msg.value > 0);\n        balance += msg.value;\n        deposit(msg.value);\n    }\n\n    function deposit(uint amount) internal {\n        received(amount);\n    }\n\n    function uintToBytes(uint v) constant returns (bytes32 ret) {\n        if (v == 0) {\n            ret = '0';\n        }\n        else {\n            while (v > 0) {\n                ret = bytes32(uint(ret) / (2 ** 8));\n                ret |= bytes32(((v % 10) + 48) * 2 ** (8 * 31));\n                v /= 10;\n            }\n        }\n        return ret;\n    }\n\n\n}\n",
  "sourcePath": "/home/hartger/code/dapptest/app/contracts/StakeAgent.sol",
  "compiler": {
    "name": "solc",
    "version": "0.4.19+commit.c4cbbb05.Emscripten.clang"
  },
  "schemaVersion": "2.0.0",
  "updatedAt": "2018-02-28T13:17:53.311Z"
}